:020000041000EA
:1000000000B5324B212058609868022188439860DF
:10001000D860186158612E4B002199600221596106
:100020000121F02299502B49196001219960352056
:1000300000F044F80222904214D00621196600F024
:1000400034F8196E01211966002018661A6600F04E
:100050002CF8196E196E196E052000F02FF8012189
:100060000842F9D1002199601B49196000215960AB
:100070001A491B48016001219960EB211966A021F2
:10008000196600F012F800219960164914480160C1
:100090000121996001BC002800D000471248134993
:1000A000086003C880F30888084703B5996A0420EC
:1000B0000142FBD001200142F8D103BD02B5186610
:1000C0001866FFF7F2FF186E186E02BD00000240BE
:1000D000000000180000070000035F00212200005C
:1000E000F4000018222000A00001001008ED00E03C
:1000F00000000000000000000000000074B24E7A12
:1001000000200420F7010010C3010010C5010010F9
:10011000C1010010C1010010C1010010C101001097
:10012000C1010010C1010010C1010010C701001081
:10013000C1010010C1010010C9010010CB01001065
:10014000CD010010CD010010CD010010CD01001037
:10015000CD010010CD010010CD010010CD01001027
:10016000CD010010CD010010CD010010CD01001017
:10017000CD010010CD010010CD010010CD01001007
:10018000CD010010CD010010CD010010CD010010F7
:10019000CD010010CD010010CD010010CD010010E7
:1001A000CD010010CD010010CD010010CD010010D7
:1001B000CD010010CD010010CD010010CD010010C7
:1001C00000BE00BE00BE00BE00BE00BEEFF3058054
:1001D000103800BEF2EB8871B4B80110D8B8011025
:1001E0003402001090A31AE700201F49086006C8D7
:1001F00081F3088810471D48006800282FD10DA4FE
:100200000ECC002902D000F012F8F9E71849194A7B
:10021000002000E001C19142FCD1174988471749ED
:1002200088471749884700BEFDE701C901C29A42C5
:10023000FBD37047D8B80110C0000020182A002056
:1002400030E20110000004200000042030E2011020
:10025000001004200010042000000000704709482E
:1002600003F078FE0047000008ED00E0000000D039
:10027000182A0020E8840020912C00105D0700104F
:100280004F2C00105756000006005250ABB360537D
:10029000209D011006005250861C0302309D011063
:1002A000060052505422A29D409D0110050052505C
:1002B000DE65F46830E20110F8B5C0460448054B2D
:1002C00010B5834203D0044B002B00D0984710BDDB
:1002D000182A0020182A00200000000006480749BC
:1002E000091A8B10C90FC91810B5491003D0044B57
:1002F000002B00D0984710BD182A0020182A002093
:100300000000000010B5074C2378002B09D1FFF73F
:10031000D5FF054B002B02D0044800E000BF0123AD
:10032000237010BD4872002000000000408D0110B5
:10033000054B10B5002B03D00449054800E000BF71
:10034000FFF7CCFF10BDC046000000004C7200203B
:10035000408D011010B5002905D0FA22920000232B
:1003600003F08AFE03E0FA21890003F047FE10BD86
:10037000334B1B78834204D0324B1B7883422FD0FF
:100380007047314B1A78D0231B065B68D340DB07DC
:1003900010D52E4B00221A702C4B1B78002B11D03D
:1003A0002B4B00229B5E2B4A934207D00133284AF5
:1003B0001380E1E7254B01221A70EDE7244B264A12
:1003C0001A80D9E7224B00229B5E234A934203D036
:1003D000013B1F4A1380CFE71D4B1E4A1A80CBE713
:1003E0001E4B1A78D0231B065B68D340DB0710D462
:1003F0001B4B00221A701A4B1B78002B11D0194B83
:1004000000229B5E134A934207D00133154A1380A2
:10041000B6E7134B01221A70EDE7124B0E4A1A8011
:10042000AEE7104B00229B5E0B4A934203D0013B88
:100430000C4A1380A4E70B4B064A1A80A0E7C0467B
:10044000C41A0020C21A0020C51A0020D984002036
:10045000D6840020FF7F00000080FFFFC31A002029
:10046000D8840020D48400207047000010B5040018
:10047000006804F0EBF9054B1860206804F01AFAE4
:1004800002000B00024804F04BFC10BD5881002014
:10049000408D011010B50400006804F0D7F9054B39
:1004A0001860206804F006FA02000B00024804F00D
:1004B00037FC10BD5C810020508D011000B585B067
:1004C00003AA054B138000230093023368210348DD
:1004D00007F02AF905B000BD6B80FFFF9C1B0020D0
:1004E000F0B587B005000E0017000F226A443B23C9
:1004F00013702B4C3A3B00936821200007F014F94D
:1005000000230093063304AA6821200007F018F99D
:10051000002308E05A0004A8845C2402511C415CBA
:100520002143A9520133022BF4DD0F226A444323F5
:1005300013701B4C423B00936821200007F0F4F835
:1005400000230093063304AA6821200007F0F8F87E
:10055000002308E0580004AA155C2D02411C545CDD
:100560002C4334520133022BF4DD0F226A44412321
:1005700013700B4C403B00936821200007F0D4F827
:1005800000230093023304AA6821200007F0D8F862
:100590006B461A7C12025B7C13433B8007B0F0BDB4
:1005A0009C1B002030B587B00400042100F06CFBD8
:1005B0006208072002400021039104910591102355
:1005C00004930E4B0593402304930D4C9000831825
:1005D0009B00195183189B00A44663449960D9601D
:1005E00005990191196104995960012303990B43FD
:1005F00080188000035107B030BDC046FFFF0000E7
:100600000000054030B5244B1A68002A2BDD234B2F
:100610001B78012108009840D0231B06586199617E
:100620001F4B187813029B1ADA179B1853409BB282
:10063000420807210A40012425000540910089183D
:100640008A0018498C466244044220D010218B4015
:10065000002D1ED01449106843400B4080214901F1
:100660000A43136030BD002A07DB0C4B19780123C5
:100670008B40D02109068B61D2E7084B1B78012102
:1006800008009840D0231B0698615961C8E72900EB
:10069000DDE70649DFE7C04658810020C01A002088
:1006A000C61A00200C0005400000FFFFFFFF0000FD
:1006B00030B5244B1A68002A2BDD234B1B7801210F
:1006C00008009840D0231B06586199611F4B187889
:1006D00013029B1ADA179B1853409BB2420807215A
:1006E0000A40012425000540910089188A00184914
:1006F0008C466244044220D010218B40002D1ED035
:100700001449106843400B40802149010A4313609B
:1007100030BD002A07DB0C4B197801238B40D02118
:1007200009068B61D2E7084B1B780121080098402D
:10073000D0231B0698615961C8E72900DDE7064907
:10074000DFE7C0465C810020C11A0020C71A0020E4
:100750000C0005400000FFFFFFFF0000F0B5CE4693
:10076000474680B5C7B0D74B0193D74B0093D74BC3
:10077000D74A0021012009F0C9FDD649D64806F024
:10078000A7FF0321042000F07FFA0321052000F0D9
:100790007BFA00220121042000F08EFA00220121C0
:1007A000052000F089FAFFF789FECC4C207800F094
:1007B00053FBCB4E307800F04FFB237801252A0005
:1007C0009A40D0242406A26233782A009A40A2627A
:1007D000C44F387800F040FBC34E307800F03CFB4B
:1007E0003B782A009A40A26233782A009A40A2629B
:1007F000BE4B1878FFF7D6FEBD4B1878FFF7D2FE38
:10080000BC4B9946187800F027FBBB4B98461878EC
:1008100000F022FB4B461B782A009A406262434656
:100820001B782A009A406262002000F015FB656286
:100830003878B24B0122082100F0B2FA3078012258
:10084000082100F09DFA3EAC02A809F0BDFC02AB05
:10085000220013CB13C203CB03C2FA2078218000FD
:1008600009F06EFD002804D047B0C0BCB946B046C0
:10087000F0BD3EAB0022110031A809F079FB31AB8D
:100880009F4AA04943A809F0BDFB0AF047FD0200BA
:100890009D4B43A99D4809F0EFFB0AF03FFD020084
:1008A0009B4B43A99B4809F0E7FB0AF0BDFB020004
:1008B000994B43A9994809F0DFFB06F04DFF020070
:1008C000974B43A9974809F0D7FB974B0093974A5A
:1008D000002331A945A809F037FC0AF01FFD0200EA
:1008E000934F944B43A9380009F0FAFB0AF016FD28
:1008F0000200914E914B43A9300009F0F1FB3EAB51
:10090000022231A90EA809F061F88D4C002500954E
:100910008C4B220039000EA809F0B8F800958A4BDC
:10092000220031000EA809F0B1F8D0231B060122E5
:100930005A61256001F008FCA94206DBFFF70AFDB9
:10094000070000239846994672E0804B804A3F2179
:10095000804802F07FF97D4B7D4A3F217D4802F0BF
:1009600079F9FA21890003F049FB0400E01B03F048
:1009700046FF794903F03EFF002840D0484603F087
:1009800043FF051C754E0023F05E03F03DFF011C84
:10099000281C03F0E6FE704903F0E9FE704903F0FD
:1009A000FAFE704F3860404603F02EFF80466E4DD1
:1009B0000023E85E03F028FF011C404603F0D1FE4F
:1009C000654903F0D4FE664903F0E5FE674B98469F
:1009D0001860002239004D4808F074FC002241469E
:1009E0004C4808F06FFC002261494C4808F06AFC52
:1009F0000022B35E99460022AB5E984627005D4C0C
:100A0000564B0020185E03F0C5FD20606160564B18
:100A10000020185E03F0BEFDA060E160002221000E
:100A2000404808F04FFC414A00230EA809F068FA3C
:100A3000FFF7E8FDFFF73CFE0AAD0CAE26226A4444
:100A400029003000FFF74CFD0023F05E03F0A2FD0B
:100A5000474C2300E033186059600223F05E03F036
:100A600099FD2300E833186059600423F05E03F019
:100A700091FD2300F033186059600023E85E03F015
:100A800089FD23008033186059600223E85E03F07B
:100A900081FD23008833186059600423E85E03F069
:100AA00079FD90342060616001F04EFB002900DA8E
:100AB00051E700D155E7FA229200002303F0DCFA57
:100AC000040053E7070C0010D90B0010D50B0010E1
:100AD000B50B0010801A06009C1B0020C31A0020D2
:100AE000C51A0020C21A0020C41A0020C61A00200D
:100AF000C71A0020C01A0020C11A0020710300107C
:100B0000C8B50110648D0110708D0110F4800020B3
:100B1000808D011078810020908D0110E4760020F6
:100B20009C8D0110F88300206904001000E1F50598
:100B3000EC800020A88D011070810020C48D011070
:100B4000148100206D04001095040010E08D011048
:100B5000FC8D0110348E01100000FA43D484002073
:100B600000007A44F0800020D684002074810020A8
:100B7000182A00203072002070B50C0001F0E4FA51
:100B800006000D000A4A002303F076FA2060616037
:100B9000074A00233000290003F06EFA10005301C9
:100BA0009B1A9A001218D200A260002070BDC046A5
:100BB00040420F0010B5064B1B78002B01D10120DD
:100BC00010BD04F0B9F8024B00221A70F7E7C046D6
:100BD000C81A002001207047F0B583B00E0017003E
:100BE0000193002400E00134BC4209D2355D2800A5
:100BF00004F000F88542F6D00123019A1370270013
:100C0000380003B0F0BDF8B5DE4657464E464546BF
:100C1000E0B58B469246994601F096FA06000F0021
:100C20000023984609E001230A9A137025E05B46E9
:100C30004246985401239C46E044D0451CD24B4682
:100C40005B014A469B1A9B004B44DB001C00DD17EE
:100C500001F07AFA32003B00121A8B4110001900A1
:100C6000001969410029DEDB04F06AF8431CDED17B
:100C700001230A9A137000E0D0464046F0BCBB4600
:100C8000B246A946A046F8BD10B58300084A94466E
:100C900063441C6840226240C024144080225201F8
:100CA00013431C60C000034B9C466044416010BD70
:100CB00004C001400040014080000B4B9C46604452
:100CC00000290DD00823002A0CD004221343026807
:100CD00053400C221340802252011043036070479E
:100CE0000023F0E70022F1E704C0014070B50400E2
:100CF000D0231B061D68AA000C4BD358002B0AD02A
:100D0000002803D0AD00094BEC5070BD08490D2000
:100D100000F020FBF6E70028F7D0AD00034BE850C9
:100D2000002203490D2000F0FBF9EEE7F8770020E0
:100D3000C10D0010072303409B00C00899403C30C0
:100D40008000014BC150704700400140F8B50700DA
:100D50000C0016001D00FFF7EDFFFB089B00ED18CF
:100D60000720384080008440002E04D080239B015F
:100D70001D432C60F8BDC0239B011D432C60F9E787
:100D800010B5D0231B061B68002B03D0024BFFF7C6
:100D9000DDFF10BD014BFAE7304101400041014049
:100DA00070B514001D00FFF7EBFF2800FFF79EFF52
:100DB000002C00D170BD01210D2000F05DF9F9E794
:100DC000F0B5D6464F464646C0B5D0231B061F6831
:100DD000BA001D4BD3589846002F03D01B4B9946A1
:100DE000002623E01A4B9946FAE724090135002C26
:100DF0001BD033000833AB4217D90F231A0022400F
:100E000092462342F1D0BB00124A9A580123AB40CC
:100E10001342EAD151462800FFF78CFF4346002BCE
:100E2000E3D051462800C047DFE708361D2E06D81C
:100E3000F30808339B004A469C583500D7E7E0BCCE
:100E4000BA46B146A846F0BDF877002030410140CF
:100E5000004101406081002010B501238340D02271
:100E60001206936293610521FFF70EFF10BD00008B
:100E7000034B1B6802201840431E9841C0B27047C4
:100E800000C00640EFF3108072B6034B1B68002BC6
:100E9000FBD0BFF35F8F70472C0100D0BFF35F8F93
:100EA000024B00221A6080F3108870472C0100D09A
:100EB000F8B506000C001500FFF7E4FFE308F7188B
:100EC000F15C07222240012393400B4205D1DBB2A3
:100ED0000B433B70FFF7E2FFF8BD2100280001F053
:100EE00053FFF0B583B00600019114001F00FFF717
:100EF000C9FF00E00134BC420CD8E308F518F35CEC
:100F00000721214001228A401A42F3D1D2B21A436A
:100F10002A7001E001246442FFF7C0FF002C02DBCD
:100F2000200003B0F0BD019B002BF9D0089801F020
:100F30002BFF0000002307E0054A9A189200BFF338
:100F40005F8F0021116001331F2BF5D97047C04618
:100F500040000034054A1078431CDBB21370172B95
:100F600002D9130010221A707047C046C91A002017
:100F700000B583B00100044B00931F2318220348DF
:100F8000FFF7AFFF03B000BD848E0110087800208A
:100F9000074B9B68103080001950BFF35F8FBFF381
:100FA0005F8F044B0021196082F310887047C046A0
:100FB00000ED00E0240100D010B5091A081F0A4B0B
:100FC0009C466144094A914208D8C30706D44010A0
:100FD0004005400D064B184380B210BD054B064A34
:100FE000A321064801F036FEFC070000FE0F0000BA
:100FF00000E0FFFFA08E011010910110D08E0110B3
:1010000010B5091A04394C08090B08D14905490DD6
:10101000064A11430180064B2343438010BD054B14
:10102000054AAB21054801F015FEC04600F0FFFF60
:1010300000F8FFFF108F0110E4900110D08E011016
:1010400001238340034A10681840431E9841C0B2F0
:101050007047C04600E100E0002904D0034B18604F
:10106000034B18607047034B1860FBE780E200E019
:1010700000E100E080E100E010B5012383401800AA
:10108000FFF7EAFF10BD000001238340014A13600F
:101090007047C04600E200E0024B9B6810308000C1
:1010A000C058704700ED00E010B5FFF7F5FF0028CD
:1010B00005D0054BC01A2F2803D8012010BD0020F1
:1010C000FCE70020FAE7C046CC1A002070B5040007
:1010D0000D00EFF3108672B60C4B1B68002BFBD093
:1010E000BFF35F8F2000FFF7D7FF094B984201D075
:1010F000A84205D1320029002000FFF749FF70BD4A
:10110000044B054A8621054801F0A4FD240100D0C6
:10111000CD010010208F011044910110D08E0110DC
:10112000F0B5DE4657464E464546E0B589B08146A5
:1011300001911500EFF3108A72B6744B1B68002BF7
:10114000FBD0BFF35F8F724B0027DF57002F40DBD0
:101150007C00E419A4006F4824180622A2566C4BA8
:101160001A706D4B9A684B4610339B00D3589846C3
:101170001E001B1A2F2B38D9684B98452FD105AE6E
:10118000674B33807B009B46D8198000614B9846A3
:10119000404402306349FFF70FFF7080624BB38019
:1011A000FF23B371F571019B07935F44BF00474470
:1011B0000ECE0EC701231C43A04652464146484668
:1011C000FFF7E6FE09B0F0BCBB46B246A946A04612
:1011D000F0BD564B564AD721564801F03BFD564BC1
:1011E000534ADE21534801F035FDC04340440C21F1
:1011F00002F004FF002912D101239E43B3463300BD
:101200000026DA79AA4211D90621595600290CDBA9
:101210004A00521892001E003E4B9B18F1E7474BC4
:10122000434AEA21434801F015FD1E00002E3AD042
:1012300005AB434A1A80813A5A800623F35602933B
:10124000002B17DA3F4805AB9B469880029A9A71AB
:10125000DD71019A0792301D2100FFF7ADFEB080CD
:10126000B7717B00DB199B002A4FFF185B4607CB49
:1012700007C7A2E77800C0198000264BC0180430C9
:10128000321DB388D90A1C2907D15B0559150231D3
:1012900049005118FFF790FED5E72B4B2B4AB1219F
:1012A000244801F0D7FC05AE1D4B33807B00029330
:1012B000D8198000174A9046020042440392901CBD
:1012C0001849FFF779FE7080039A101D5946FFF701
:1012D00073FEB0801E4B5A464146521A5241534348
:1012E0001B0DB371F571019A0792029B9C466744EE
:1012F000BF0047440ECE0EC7114B5A461380813BA8
:10130000538001231C43A04657E7C046240100D068
:10131000E1840020CC1A002000ED00E0CD01001097
:1013200000A1FFFFFC1A002001BDFFFF588F011034
:101330002C910110D08E0110808F0110A88F011008
:101340000148000001BD00001C9001101C9101101B
:10135000AAAA0000F0B5CE46474680B583B0060085
:101360000D00EFF3108872B6564B1B68002BFBD0B4
:10137000BFF35F8F544B9A6834001034A300D758E2
:10138000524B9F4207D0AF4200D198E00197504B9B
:10139000FB1A2F2B09D9424639003000FFF7F8FD20
:1013A00003B0C0BCB946B046F0BD3000FFF748FE00
:1013B000814600213000FFF75FFEBFF35F8FEFF340
:1013C0000581002901D08C4211D10123019C9C434D
:1013D0000022A368AB4212D00622A256002A0DDBDF
:1013E00053009B189B002200394CE418F1E736218A
:1013F000384B394AFF31394801F02CFC2200AB420E
:1014000056D106256557002D38DB6B005B199A0015
:101410002F4B9B189A68A260DA79E27106229A56DD
:10142000A2719B795BB2002B0FDA2D48A0806B0074
:101430005B199B00264AD3182A4A117899711570B6
:1014400049463000FFF718FEA5E7201D6B005B1929
:101450009B001F4A9B181A1D9B88D90A1C2907D17B
:101460005B055B15023359005118FFF7A5FDDDE759
:101470001D4B1E4AB121194801F0ECFB002912D185
:10148000002A0ED0FF239371194B9380154A1378CD
:10149000A371184B0E49641A644163431B0D13700A
:1014A000CEE70A4FF2E7201D1349FFF7A9FDC7E772
:1014B0006A21124B084AFF31084801F0CBFB034F69
:1014C00069E7C046240100D000ED00E0CD01001026
:1014D000CC1A002034900110FC900110D08E011025
:1014E00001BD0000E18400201C9001101C9101103E
:1014F00001BDFFFFAAAA0000061B00206890011092
:1015000070B5012101432E4BCB1A2F2B28D8EFF3B6
:101510000583002B2BD0EFF3108C72B6294A12688A
:10152000002AFBD0BFF35F8F274A0400244D641BC1
:1015300064416243120D54B2244A92689B00D2580F
:101540008A421BD00022032A32D853009B189B00EA
:101550001B49CB189B795BB2A3421FD00132F2E743
:10156000C7211B4B1B4A49001B4801F073FB92210A
:101570001A4B184AFF31184801F06CFB134A926865
:101580001749D150174B1A7882711C70BFF35F8FC7
:101590000C4B00221A608CF3108870BD0D005300B4
:1015A000991889006918FF268E710F4A8A80E9E729
:1015B000D1210E4B074A4900074801F04BFBC046BA
:1015C000CC1A0020240100D0AAAA000000ED00E0FF
:1015D00070900110C8900110D08E011098900110E9
:1015E000CD010010E184002001BDFFFFA490011097
:1015F0000022044B02E0044902C30132072AFAD94F
:101600007047C04600E400E08080808000B583B071
:101610000100064B0093052300220548FFF761FCFB
:10162000002801DB1F23181A03B000BDAC90011085
:10163000E6840020024B9C466144890001607047AB
:101640004000003410B50400FFF784FC01002000C6
:10165000FFF7F0FFFF232371BFF35F8F10BD10B5BD
:101660000400FFF777FC01002000FFF7E3FFFF23F2
:10167000237100236371BFF35F8F10BD034B9C4642
:10168000614489000160BFF35F8F70474000003400
:1016900010B504000120FFF76BFC01002000FFF7EC
:1016A000EDFF10BD70B505000C00080000F04CFE09
:1016B0000949200000F08CFDFFF74CFC074B9C46CD
:1016C0006044800068602C75D0231B061B786B7506
:1016D000A400034BE55070BDE91900104000003430
:1016E000388100200A4B1A68EFF3108172B6136834
:1016F000002BFCD0BFF35F8F054B1B68BFF35F8FE0
:1017000000221A6081F3108840BF0020002170473A
:10171000BC83002010B5002922D003681B7B9942AE
:101720001ED8174B9C466144090183689C4661445E
:101730000C684968002A19D003681B7B9A4215D8A7
:1017400083680F488446624412019A1810685368EF
:10175000020001208B4201D80ED00020C0B210BD83
:10176000084B094A3C21094801F074FA054B064A26
:101770003C21064801F06EFAA242EFD8EDE7C046E0
:10178000FFFFFF0F7C920110949401104092011012
:1017900010B500291ED0037B99421BD84B005B1863
:1017A000033B0468A4466344002919D0002A1DD0D5
:1017B000914221D0002A25D0047BA24222D804687D
:1017C00050008018033820188170197800291FD123
:1017D0001A7010BD104B114A6821114801F03AFAF5
:1017E000104B114A6F310E4801F034FA0F4B0E4A7C
:1017F00070210B4801F02EFA0D4B0B4A712108485D
:1018000001F028FA044B054A6821054801F022FA44
:1018100041701A70DDE7C046A092011000950110DA
:10182000BC9201100C930110DC940110189301106C
:101830002493011070B506000D001400002914D087
:10184000002A14D0806873689847002806D02200C8
:1018500029003000FFF79CFF280007E02A00210044
:101860003000FFF795FF200000E0100070BD080079
:10187000FCE70000F0B583B00500009201930AABCD
:101880001C780BAB1F78002C26D003685A7B94423F
:1018900007D10123002B19D1002C3BD1200003B02C
:1018A000F0BD002C0CD01A7B944209D81A68630052
:1018B0001B19033BD3189B78002BEBD00123E9E7DE
:1018C0003E4B3F4A68213F4801F0C4F93E4B3F4A36
:1018D00067213F4801F0BEF903689C7B002CDBD0F8
:1018E00012D01A7B94420FD862001219033A196879
:1018F0008C46624451789973002900D1D973002332
:10190000937053701370C7E72C4B2D4A68212D48F4
:1019100001F0A0F9002C3AD02B681B7B9C4236D8F2
:101920002C4BE3181B01AA6894466344009A1A6082
:10193000019A5A60089A9A60099ADA602E68002C17
:101940002BD030D0337B9C422DD863001B19033B36
:1019500032689446634400229A705A701A70717B00
:1019600022003000FFF766FF7073844200D095E7D5
:10197000287D009A019B00F073FC061E01D0002F09
:1019800017D00C9B002B00D188E71E7086E7124B06
:10199000124A3C210E4801F05DF9114B114AA52174
:1019A000084801F057F9054B054A6821054801F040
:1019B00051F92868210000F08BFEE2E7A0920110A7
:1019C00000950110BC9201103C9301100C95011080
:1019D00040920110FFFFFF0F7C92011094940110C0
:1019E0003C920110F0940110F0B5DE4657464E4689
:1019F0004546E0B58BB00990002308938200B54BB3
:101A0000D658370052E0B44BB44A3F21B44801F0F5
:101A100021F9B44BB44A3C21B44801F01BF9002928
:101A200001D1002869D10021404600F047FEA042C4
:101A300019D12A686B6806920793AB689846EB68E1
:101A40009A464346002B14D0002C18D03B681B7BD1
:101A50009C4214D8631EFA68D35C08931B02184397
:101A60003861002015E0A24BA24A8E219F4801F068
:101A7000F1F8A14B9F4A92219C4801F0EBF8994B59
:101A80009E4A4121994801F0E5F800239A4698467C
:101A900000207B68BFF35F8F00221A6086F31088F6
:101AA0004346002B32D1002800D10CE100F04CFB62
:101AB00002000B1EA7DB002000210690079178682A
:101AC000EFF3108672B601680029FCD0BFF35F8F78
:101AD000396888464C7B002CD7D09AD0097B8C4241
:101AE00097D8874965182D01B9688C4665442868E0
:101AF0006968801A9941002991DD2A686B68099804
:101B000000F0AEFB00239A469846C2E7089B1B02F2
:101B10002343994651461800C04705000E007A68D5
:101B2000EFF3108B72B6136859424B41D9B2002BB8
:101B3000F9D1BFF35F8F002E1EDB002E46DD3B691F
:101B4000002B47D04B456DD100F0FEFA02000B1E72
:101B50006EDB52197341002B70DB002B72DB00210E
:101B60000491013103910294514601914146009143
:101B70003800FFF77FFE4CE03B69002BDDD04B4582
:101B800014D1069A079B521BB341002B14DB002B88
:101B900016DB002104910131039102945146019119
:101BA000414600913800FFF765FE32E0554B514A3F
:101BB000A1214E4801F04EF801225242524BE6E775
:101BC000454B464A3F21464801F044F8002E01D1DA
:101BD000002DB4D13B68002C50D05A7B944237D1B1
:101BE000012100294AD1DA7B002A4DD19A7B002AB3
:101BF00003D1DA7B002A5AD19C73DC73002C5CD0B1
:101C00003B681B7B9C4258D8FA68013C135D01334A
:101C1000135500233B617A68BFF35F8F13608BF32A
:101C2000108843E7374B334AA421304801F012F8BB
:101C3000294B2A4A3F212A4801F00CF8012252423E
:101C4000314B8AE7244B254A3F21254801F002F811
:101C5000002C0DD01A7B94420AD862001219033A64
:101C60001868844662449278002ABAD00121B8E705
:101C7000264B274A6821274800F0ECFF264B274ACD
:101C8000F621244800F0E6FF002A0AD0197B8A4298
:101C900007D851008A18033A19688C466244547078
:101CA000A4E71A4B1A4A68211A4800F0D3FF1C4BCC
:101CB0001A4AFB21174800F0CDFF0A4B0F4A412179
:101CC0000A4800F0C7FF0BB0F0BCBB46B246A946BD
:101CD000A046F0BD38810020E08D01106094011015
:101CE000348E01107C9201109494011040920110E6
:101CF00064930110789401107C930110B894011042
:101D0000FFFFFF0F88930110FFFFFF7FA0920110DC
:101D100000950110BC920110C4930110CC940110E5
:101D2000E893011010B50C4B5B68002B04D00A211E
:101D30000A48FFF77FFC10BD074C2300084A10211A
:101D4000206800F0CBFB032000F0F2F90321200013
:101D5000FFF7A8FCEBE7C046141B0020BC83002063
:101D60001517001010B5064B5B68002B01D0044816
:101D700010BD044B044A5E21044800F06BFFC046CE
:101D8000141B0020FC930110A0940110409201103C
:101D9000F0B5DE4657464E464546E0B58BB0804628
:101DA00016001F00149B9A46159B994616AB1B788C
:101DB0009B461F2302AA9446634400221A702BE01C
:101DC000002809D042461268127B904204D8421E75
:101DD0004146C9688A5C41E0404B414A4121414843
:101DE00000F038FF07984CE0361BAF41002F07DBAF
:101DF000002F11DA3C4B3D4A3F213D4800F02AFFBD
:101E0000012676423B4FF3E7374B384A3F213848AB
:101E100000F020FF002F4FDB43465A68EFF3108499
:101E200072B6136859424B41D9B20791002BF8D1D1
:101E3000BFF35F8F1F3302AA9446634404930023C9
:101E4000039302934B4601935346009332003B00A9
:101E50004046FFF70FFD031EB2D10200414649681C
:101E6000BFF35F8F00250D6084F31088002B29D00D
:101E70001F2302A98C4663441B78002BB2D11202A7
:101E80001043002B20D05B46002B1DD04946D04785
:101E900004000D0003000B431DD00029A4DB00F05B
:101EA00053F906000F1EAFDB36196F41002FB1DA70
:101EB000012676420F4FADE70B4B0C4A3F210C48F1
:101EC00000F0C8FE012040420BB0F0BCBB46B24659
:101ED000A946A046F0BD0798F6E7C0467C920110DF
:101EE000B894011040920110E08D0110609401102F
:101EF000348E0110FFFFFF7FF8B50400002900D1E8
:101F000062E04268EFF3108572B6136858424341AD
:101F1000D8B2002BF9D1BFF35F8FCBB22268567BCA
:101F2000B3421BD10120002848D0206988422BD021
:101F3000090AC9B2002B2ED02068007B83422AD820
:101F4000581EE668305C88422BD000206368BFF3DF
:101F50005F8F00221A6085F31088F8BD002B0DD02A
:101F6000167BB3420AD85E00F618033E1768BC46DB
:101F70006644B678002ED6D00120D4E7134B144A1D
:101F80006821144800F066FE2C21134B134AFF31E0
:101F9000134800F05FFE134B134A4121104800F034
:101FA00059FE1900100000F093FB0028CED19921B2
:101FB0000E4B0A4A49000A4800F04CFE23698B4246
:101FC000C4D100232361C1E70020C6E7A09201101D
:101FD00000950110BC92011020940110489401104A
:101FE000409201107C920110B894011044940110A9
:101FF000407D704770B584B005000C00EFF3058399
:10200000002B1ED1FFF7AEFE002302930193224B5B
:1020100000932A002300FFF7BBFE061E23DD20BF2E
:10202000FFF7A0FE3100FFF767FF1C4B5B6A9C4285
:102030002DD81A4A926AAA422CD29C4225D001205D
:1020400026E0164B5B6A994209D8144A926A82428A
:1020500007D2994201D001201AE0002018E00020A8
:1020600016E0012014E00D4B5B6A9C4209D80B4A34
:10207000926AAA4207D29C4201D0012008E00020C7
:1020800006E0002004E0012002E0002000E0002043
:1020900004B070BD0120FBE7E516001000400540CC
:1020A00070B5EFF305801038EFF3108C72B61A4B51
:1020B0001B68002BFBD0BFF35F8F0122130083400E
:1020C00016494B6316490B60164909780C00C44049
:1020D000224214D0114A546A8200134D525994423C
:1020E00006D38200114C125999430E4B197007E028
:1020F0000A4A031D9B0099589950002200E00022D3
:10210000BFF35F8F044B002119608CF31088002A05
:1021100000D0904770BDC046280100D00040054067
:102120003C700540E5840020E8830020E87600202C
:1021300010B50100024A0348FEF7BAFE10BDC046C2
:1021400030950110DD840020044B5B6A034A906ADD
:102150001900536A9942F9D17047C04600400540C2
:10216000084B5B6A01E0074B5B6A8B42FBD301E0E3
:10217000044B5B6A8B4203D1024B9B6A8342F7D3C9
:102180007047C0460040054070B504000D00FFF7E1
:10219000DBFF02000B0020002900801859418B4210
:1021A00002D804D1824202D901204042C11700293D
:1021B00002DBFFF7D5FF70BD024B034A3F21034806
:1021C00000F048FDE08D0110D8950110348E01100B
:1021D00070B504000D00EFF3108672B61B4B1B6840
:1021E000002BFBD0BFF35F8F002D1CD02000FEF72B
:1021F00053FF174B83420BD019002000FEF766FFF8
:1022000001212000FEF738FF0123A340114A13608B
:10221000A400114BE550BFF35F8F0C4B00221A60F6
:1022200086F3108870BDA2000B4B0021D150012213
:10223000A2400A490B7893430B7005492000FFF731
:1022400089F800212000FEF717FFE4E7280100D0FD
:10225000A120001038600540E8760020E5840020C9
:10226000F0B5DE4600B584B00400150001921E00F2
:102270000293FFF769FF03958E4202D84ED1854243
:102280004CD9EFF3108B72B6274B1B68002BFBD099
:10229000BFF35F8F254A17780125A540EBB23B437A
:1022A0001370234B5D63221D92000199D150A2004F
:1022B0002049029850501B6A2B4212D11C4B1B6CB8
:1022C0002B4208D00020BFF35F8F174B00221A600B
:1022D0008BF3108823E0184B184AC521184800F0EA
:1022E000B9FCFFF731FF8E4214D802D1039B834221
:1022F00010D80E4B1B78BB420ED00D4B1D625D6398
:102300001F2004400123A3400E4A1360074B1F7097
:102310001E38D8E70020D6E70120D4E7012004B01A
:1023200080BCBB46F0BDC046280100D0E58400203B
:1023300000400540E883002054950110BC95011031
:102340007895011080E200E0EFF3108C72B60B4B31
:102350001B68002BFBD0BFF35F8F01238340084A2B
:10236000136208490A789A430A70BFF35F8F034BE0
:1023700000221A608CF310887047C046280100D0F4
:1023800000400540E584002010B500291ED0037BE5
:1023900099421BD84B005B18033B0468A446634476
:1023A000002919D0002A1DD0914221D0002A25D021
:1023B000047BA24222D804685000801803382018F9
:1023C0008170197800291FD11A7010BD104B114A65
:1023D0006821114800F03EFC104B114A6F310E4845
:1023E00000F038FC0F4B0E4A70210B4800F032FC15
:1023F0000D4B0B4A7121084800F02CFC044B054A98
:102400006821054800F026FC41701A70DDE7C046DF
:10241000A0920110E0960110BC9201100C930110E3
:10242000CC960110189301102493011070B506008A
:102430000D001400002914D0002A14D0806873689D
:102440009847002806D0220029003000FFF79CFFA3
:10245000280007E02A0021003000FFF795FF200048
:1024600000E0100070BD0800FCE7000010B500237C
:10247000437301338373037BC3730123027B9A424B
:1024800014D9002B0CD0027B934209D85A00D218E1
:10249000033A01688C4662440133DBB25370EDE7C6
:1024A0000B4B0C4A68210C4800F0D4FB002A09D0E1
:1024B000924207D8016853009A18033A8A180023F9
:1024C000537010BD024B034A6821034800F0C2FB61
:1024D000A0920110E0960110BC92011010B501739A
:1024E00042608360FFF7C2FF10BD000070B50400BA
:1024F000081E00D170BD002934D0237B994231D809
:102500004B005B18033B2268944663445A78002AC8
:10251000F0D02DD0237B9A422AD853009B18033B3E
:1025200021688C4663445D7800215970002825D0CD
:10253000237B984222D843001B18033B21688C461A
:1025400063440021597001002000FFF76FFF06006F
:1025500029002000FFF7CAFF020031002000FFF72A
:1025600065FFC7E7084B094A6821094800F072FB7C
:10257000054B064A6821064800F06CFB024B034AF3
:102580006821034800F066FBA0920110E09601105C
:10259000BC92011070B505000C00160000292FD068
:1025A00034D0037B994231D84B005B18033B02685F
:1025B000944663445A78002A2ED19A78002A31D161
:1025C0001978FFF793FF0300002E0AD0EA7B002A58
:1025D0002ED1AA7B002A03D1EA7B002A3BD1AC731F
:1025E000EC73002B3DD1002C4FD02B7B9C424CD860
:1025F0002B6861000C19033C1C190023637070BD2B
:10260000254B264A3821264800F024FB254B264A34
:102610006821264800F01EFB254B204A3A2120481D
:1026200000F018FB234B1D4A3B211D4800F012FB14
:10263000002A0AD0297B8A4207D851008A18033A17
:1026400029688C4662445470C3E7164B164A6821C9
:10265000164800F0FFFA184B104A4221104800F0CB
:10266000F9FA002B0BD02A7B934208D843001B18A1
:10267000033B2A689446634400229A70B3E7094BEF
:10268000094A6821094800F0E5FA064B064A682124
:10269000064800F0DFFAC046F0950110B896011028
:1026A000F8950110A0920110E0960110BC92011063
:1026B000349601105C960110E893011070B5040087
:1026C0000A00457B2900FFF765FF6073280070BD95
:1026D00070B50400002967D0437B8B420ED00029DF
:1026E00011D0037B99420ED84B005B18033B026864
:1026F000D0188378002B0CD1002056E00121FFF781
:10270000DDFF012051E0294B294A6821294800F0CA
:10271000A1FA002B20D0227B93421DD85A00D31857
:10272000033B2268D2182568EB5C8B421AD0002B41
:102730001BD0227B934218D85A00D318033B22683F
:10274000D21853788B4216D0002BF0D11A4B1B4A6B
:102750006B211B4800F07EFA144B154A682115487E
:1027600000F078FA4378137007E0104B104A6821A4
:10277000104800F06FFA4378537000238370437061
:1027800001222000FFF706FF0200617B814205D095
:102790002000FFF74BFE6073012006E0094B074A5B
:1027A0007121074800F056FA002070BDA092011078
:1027B000E0960110BC920110A4900110A0960110A7
:1027C000F895011080960110F8B5DE4657464E4642
:1027D0004546E0B505000F0092460A9A934250D351
:1027E0001A0E91461E020A9A00233000494601F053
:1027F00043FC80466C006419A400304B9C46644442
:102800006368834200D260602B1FDBB29B46012BC2
:102810003DD9C0239B012343802212011A60AB00E3
:10282000274A9958002907D0506901F0E7FB431C5B
:102830005800C0180338FDD253465A0123685A4045
:10284000E0231A4080235B0123431A605A46012A81
:1028500028D980239B012343802212011A6043461A
:102860006360424600233000494601F005FCAD009C
:10287000134B58510120F0BCBB46B246A946A046B6
:10288000F8BD104B104A3321104800F0E3F9012F36
:10289000BFD1C0239B01234303221A60A368DB0737
:1028A000FCD5C9E72168794003220A401A60A26872
:1028B0000123BB401342FAD0CBE7C0460080004062
:1028C0001C780020EC960110489701100097011029
:1028D00030B583B00C2000F011F9FEF7C9FA0028DA
:1028E0000DD0002304E099002D4A2E488850013372
:1028F000092BF8D92A4B2C4A5A6203B030BD2B4B16
:1029000000229A6700F06CF9294B01221A60274BCC
:102910005B6C012BFBD1274B03221A60234B9B6B73
:10292000012BFBD1013300930433234A01212348B7
:1029300000F054F805230093214A0121214800F0BA
:102940004DF8214B0093002202210420FFF73CFFA9
:102950001E4D00952B00002201210520FFF734FFBA
:10296000104C00942300002200210720FFF72CFFC9
:1029700000942300002200210820FFF725FF0A4BC6
:1029800000932300002200210920FFF71DFF00957E
:102990002B00002200210620FFF716FFADE7C046FE
:1029A0001C780020006CDC021BB700000080004097
:1029B0003CB0004030B00040002F68590080024019
:1029C000008C864700C00240001BB70040597307C7
:1029D0008000014BC05870471C780020F0B5C646F7
:1029E00000B504000E0017001D00374801F006FB7B
:1029F0008046364BFA18364B9A4239D801003800D7
:102A000001F0FCFA0200103A98235B009A4235D894
:102A10006B1E062B38D8069B013B062B34D83F098A
:102A2000474537D32D04069B1A0315432368002B13
:102A300036DB284B9C4244D080225201264B1A6040
:102A4000264B1A60264B9B6811009943FAD12660E9
:102A5000A060231DC02292011A4321231360236822
:102A6000002BFCDAE5600823136080BCB846F0BD9B
:102A70001C4B1D4A11211D4800F0ECF81C4B1A4A52
:102A800019211A4800F0E6F81A4B174A1C2117487A
:102A900000F0E0F8184B144A2321144800F0DAF84B
:102AA00022683F231340B342C3D1A3681B051B0D0B
:102AB0008342BED1E368EE22D2021340AB42B8D1CA
:102AC000D3E780229201B9E7001BB70080E84BD31F
:102AD00080F8A93200C0024000E0004000F0004051
:102AE00000C00040589701107C980110B897011061
:102AF000F8970110149801106098011080239B0032
:102B00000343014AD362704700800540024B1A68B4
:102B1000024B5A607047C046F88000200080054094
:102B200010B50200164B8020C0051860154B1648E2
:102B3000186000290AD0154BE021C9041960002A49
:102B400009D1124B802212061A6010BD0C4BE021F5
:102B5000C9041960F3E753019B1A9800801800011B
:102B60000B4B186080235B04984202D3084B094A40
:102B70001A60FFF7CBFF054B8022D2051A60E4E70D
:102B800000B0054008200140FCFF010000A0054006
:102B9000F8800020FFFFFF0010B5030010000C4A72
:102BA0008024E4051460002B0DD001221343094A50
:102BB000094CD461094C5C4014625162936200215B
:102BC000FFF7AEFF10BD034B0022DA61F7E7C04606
:102BD00000B0054000800540D3C007B02D3FF84F3E
:102BE000064BAA2212011A602F22DA60044B054A12
:102BF0001A60024B5B68002BFBDA70470040024012
:102C00000060024000B0FA0000BEFDE703000A4A7F
:102C10001268002A08D0084A1068C318074A9A4266
:102C200006D3054A13607047034A05491160F2E76D
:102C300001204042F7E7C046D87C00200000042075
:102C4000E88400200020704701204042704710B502
:102C5000FFF7DAFF10B582B00C001900002A0CD083
:102C6000084B002A0BD00192009323000200064873
:102C700002F056F80120FFF7C7FF044BF1E7034AC3
:102C8000F1E7C0468898011098980110C8B5011066
:102C900070B52B4B2B4A1A602B4B2C4A1A602C4BCD
:102CA0009A682A4B9343FAD12A4C01E008CC984702
:102CB000294B9C42FAD3FFF70BFE234B274A1A609D
:102CC000234B9B68DB43DB01FAD1254B40229A67FB
:102CD0005A671A67DA66234C09E0234B234A872197
:102CE0002348FFF7B7FF2000FEF7ACFC0834214B68
:102CF0009C4209D22368002BF5D0012BEDD1200096
:102D0000FEF7ADFC0834F2E71B4CA1681B4DC02256
:102D1000280001F067FEA560EFF30583002B00D0CB
:102D200000BEFEF707F9FEF763FCFEF7FBFF144C4D
:102D300001E008CC9847134B9C42FAD370BDC046C3
:102D400000E00040BFCDFBFE00F00040FE7F3C00F5
:102D500000C00040F4290020042A0020FFFFFF01EA
:102D600000F00140EC290020C89801103C990110A6
:102D7000E8980110F429002000ED00E00000002098
:102D8000042A0020182A00200FB400B583B0084898
:102D900001F096FF049B002B07D005A901911800B4
:102DA00001F09EFF034801F08BFF0120FFF72CFF8D
:102DB0002C9901106CB601109A4200D288547047C9
:102DC000704710B5002802D00B684968984710BDBD
:102DD0000100002007E083001B185B00501C086006
:102DE0001078C01830380A681378303BDBB2092BF2
:102DF000F1D97047F0B5DE4657464E464546E0B538
:102E000083B093461F000C9B9A460D9C0E9B9946DF
:102E10000F9B9B0703D0B8460F00060022E00192EB
:102E2000A34688464E46B9460700B44207D2551C11
:102E30004B4641462020B84701342A00F5E73D00C3
:102E40004F465C46019B9B46B1464646B846370016
:102E50002E0007E0013C551C5346185D43463900DF
:102E6000B0472A00002CF5D135003E0047460F9BA5
:102E70009B0707D4100003B0F0BCBB46B246A9467E
:102E8000A046F0BDB0464E46B9462F005D46531BE6
:102E9000B342EFD2541C4B4641462020B847220093
:102EA000F5E7F0B5CE46474680B585B094469846DE
:102EB0000C9D0D9C0EAB1B789946109A119B129E8F
:102EC000B7071CD4002B0CD0F7070AD54F46002FAC
:102ED00002D10C37374204D0013B02E030272F5596
:102EE0000134944201D21F2CF8D9F70707D59C4230
:102EF00005D21F2C03D830272F550134F5E7F706EC
:102F000015D5770505D4002C03D0944224D09C42DB
:102F100022D00F9A102A2BD00F9A102A30D00F9A55
:102F2000022A35D01F2C02D830222A5501341F2CFA
:102F300005D84A46002A31D02D222A55013403965D
:102F400002930194009543466246FFF753FF05B094
:102F5000C0BCB946B046F0BD621E012C06D00F9F22
:102F6000102F01D01400D4E7023CD2E71400D0E7C0
:102F7000B206D1D41F2CCFD878222A550134D1E7FC
:102F8000B206CCD51F2CCAD858222A550134C9E71D
:102F90001F2CC7D860322A550134C3E7720703D506
:102FA0002B222A550134CAE73207C8D520222A55D8
:102FB0000134C4E7F0B5DE4657464E464546E0B517
:102FC00093B081468A46089209931CAB10CB1B78BC
:102FD0009B461E9D219B9846002C03D11023424600
:102FE0009A4390468023DB0046461E4042461A42E2
:102FF00012D0002C22D000260EE03033D9B2771C3C
:103000000AAB99552900200000F0F8FFAC4216D316
:103010001F2F14D83E0004002900200000F0EEFF0E
:10302000CBB2092BE9D94246920605D54121C918F0
:10303000C9B20A39C9B2E2E76121F8E7270043467D
:103040000693209B05931F9B049303955B46029375
:1030500001970AAB0093099B089A51464846FFF72F
:1030600020FF13B0F0BCBB46B246A946A046F0BD57
:10307000F0B5DE4657464E464546E0B595B0089059
:1030800009910A920B931E9E1F9C20AB1B789B46B6
:10309000229B9946239D269B9A463300234303D1C6
:1030A000103352469A4392468023DB0057461F4016
:1030B00052461A4219D0330023432DD0002714E082
:1030C0003033DAB27B1C98460CABDA554A462B00FB
:1030D0003000210000F0D0FFA5421FD819D0434690
:1030E0001F2B1BD8474606000C004A462B00300019
:1030F000210000F0C1FFD3B2092BE1D9524692065C
:1031000005D54122D218D2B20A3AD2B2DAE7612208
:10311000F8E7B145E3D901E000239846534606930A
:10312000259B0593249B04934B4603935B46029394
:10313000434601930CAB00930B9B0A9A099908989C
:10314000FFF7AFFE15B0F0BCBB46B246A946A0469D
:10315000F0BD0000F0B5DE4657464E464546E0B5A8
:1031600091B083468A460C9298461A9C08941B9DFF
:10317000099522002B002000290001F0F8F9002811
:1031800000D0E5E001225242D74B2000290001F097
:10319000E9F9002800D0DBE001225242D34B2000A5
:1031A000290001F0C9F9002800D0D1E00022002355
:1031B000089E3000099D290001F0BEF9002800D0CA
:1031C000DDE008980999069007918023DB001E9A9C
:1031D0001A400D921E9A1A4201D106231C9306989A
:1031E000079904000D000A000600024300D1D1E057
:1031F000080D4005400DBE4CA44660440A03120B66
:10320000BC4B13431F0001F0C5F9BB4ABB4B01F097
:1032100054F9BB4ABB4B01F031F904000D00002208
:10322000B94B3000390001F024F9B84AB84B01F02D
:1032300044F902000B002000290001F01FF901F001
:10324000C1F9814601F0A6F904000D00B14AB24B64
:1032500001F033F90022B14B01F010F901F0B2F99D
:103260000600AF4AAF4B2000290001F026F9040008
:103270000D00300001F08EF9AB4AAC4B01F01DF9A6
:1032800002000B002000290001F0F3F804000D00FB
:1032900002000B0001F011F90A900B91A44BF318F6
:1032A00000261F0522002B002000290001F0E6F86F
:1032B0000E900F9122002B0000208021C90501F003
:1032C000D8F804000D0000229A4B0A980B9901F0DF
:1032D000DAF80022984B01F0D1F802000B000A98AE
:1032E0000B9901F0D0F80022944B01F0C7F80200CE
:1032F0000B000A980B9901F0C6F802000B002000A1
:10330000290001F0BBF802000B000E980F9901F0A4
:10331000BAF80022774B01F0B1F832003B0001F01F
:10332000CCF806000F0004000D00069A079B01F080
:1033300019F9002830D001235B429C46E144002269
:103340007D4B3000390001F09EF804000D0023E0B1
:103350001E9B04931D9B03931C9B0293089A099B3D
:103360000092019343460C9A5146584600F0FCF8EF
:1033700011B0F0BCBB46B246A946A046F0BD002342
:10338000002406930794069680231B069C466544FA
:1033900007951AE7002399464B466333C62B1ED880
:1033A00004261E9B1B0526D52B0023430FD0644A01
:1033B000644B0698079901F0CDF8002879D00022D7
:1033C000614B0698079901F0B7F8002871D01C9B53
:1033D0004B4506DD4A46981A431E1C9303E005261A
:1033E000DFE700231C938023DB001E9A1A431E9202
:1033F0000026002399461D9B9E4264D29F1B0223F8
:103400001E9A1A400A921E9A134202D0002E00D031
:1034100000274B46002B07D022002B000698079967
:1034200001F031F8069007910022002308980999CD
:1034300001F082F8002848D1444B1E9A13400493AF
:1034400003971C9B0293069B079C009301944346A1
:103450000C9A5146584600F087F8002E00D187E7B5
:103460001E9B9B063DD54525441C43460200514604
:103470002800D8474B46DA179B185340052205927F
:10348000013E0496002203920A3202924A46D00F6D
:10349000019000934346220051465846FFF78AFDAB
:1034A0000A9B002B00D163E702005F460C9E1D9D26
:1034B00054E01C9B002B9ED00D9B002B9BD01C9B93
:1034C000013B1C9397E7002799E7069C079D220084
:1034D000290080200006844661440B000692079371
:1034E000AAE76525C0E7C046FFFFEF7FFFFFEFFFBC
:1034F00001FCFFFF0000F03FFB799F501344D33FD6
:10350000B3C8608B288AC63F0000F83F61436F63F1
:10351000A787D23F71A379094F930A400000E03F8B
:103520001655B5BBB16B0240EF39FAFE422EE63FAD
:10353000FF03000000002C40000024400000184061
:103540002D431CEBE2361A3F80842E41FFF7FFFF2C
:10355000541C434651462020B8472200931BAB42DF
:10356000F6D3100004E7C046F0B5DE4657464E4697
:103570004546E0B595B00690079193469946209F41
:103580001E9A1F9B1000190000F0F1FF002831D196
:1035900001225242BF4B1E981F9900F0CDFF002818
:1035A00037D101225242BC4B1E981F9900F0DAFF1E
:1035B00000283DD10022B94B1E981F9900F0D2FF80
:1035C000002850D10022B64B1E981F9900F0B4FF7E
:1035D000002848D1002200231E981F9900F0ACFF5C
:1035E000002850D100239846229B5B0500D4B6E00A
:1035F000002458E0229B0393219B02930323019311
:10360000A84B00934B465A4607990698FFF7F2FBE2
:103610000EE1229B0393219B029304230193A24B6F
:1036200000934B465A4607990698FFF7E3FBFFE0E5
:103630000423229A1A4022990B4210D09B4B002A55
:103640000FD00422229903912199029101920093B3
:103650004B465A4607990698FFF7CCFBE8E0944B97
:10366000EDE70322EEE7229B0493219B039302974D
:103670001E9B1F9C009301944B465A46079906983F
:10368000FFF768FDD4E01E9A1F9B0020002100F088
:10369000F0FE1E901F9101239846A5E70CAB302247
:1036A0001A55013F01341F2C01D8092FF6D81E9856
:1036B0001F9900F087FF050000F06CFF02000B006F
:1036C0001E981F9900F0D5FEFA007A4B9B181A68D5
:1036D0005B680A920B9300F0F0FE0890099100F0ED
:1036E00095FF060000F052FF02000B0008980999B0
:1036F00000F0BFFE0890099100226F4B00F032FFEE
:1037000000282ED00136300000F040FF02000B00F0
:103710000A980B9900F016FF002801D00135002609
:10372000002F2CD1280000F035FF02000B001E985E
:103730001F9900F09EFE06000F0000225E4B00F075
:10374000FBFE002846D100225B4B3000390000F020
:1037500009FF00283ED1EB073CD501353AE00627AA
:1037600046E70022544B0898099900F0E5FE00282E
:10377000D6D1002E01D0F307D2D50136D0E7AA4624
:103780001F2C11D8013F0A21300000F037FC651CC6
:1037900030310CAB19550A21300000F02FFC092EF6
:1037A0000ED906002C00EBE755461F2C0CD87B1ECB
:1037B000002F09D00CAA302111551F000134F4E765
:1037C0002B0055461C00F0E71F2C03D80CAB2E2213
:1037D0001A5501341F2C10D80A21280000F0E6FBEE
:1037E000661C30310CAB19550A21280000F0DEFBB5
:1037F000051E01D03400EDE734000323229A134064
:10380000012B1CD01F2C06D84346002B32D00CAB0A
:103810002D221A550134229B0393219B029301947C
:103820000CAB00934B465A4607990698FFF7E2FA0D
:1038300015B0F0BCBB46B246A946A046F0BD219BE0
:10384000002B13D04346002B02D10C3313420FD070
:10385000219B013B2193190003E00CAB30221A5548
:1038600001348C42CED21F2CF7D9CBE72199F8E74F
:103870002199F6E7229B5B0704D50CAB2B221A5546
:103880000134C8E7229B1B07C5D50CAB20221A5573
:103890000134C0E7FFFFEFFFFFFFEF7F65CDCD41B4
:1038A00065CDCDC1589901105C9901105099011056
:1038B0004C990110489B01100000E03FF0B5DE4636
:1038C00057464E464546E0B593B082468B469046F5
:1038D0001193002900D1EBE200275546119B18787F
:1038E000002800D1E7E2252809D07C1C43463A0095
:1038F0005946A847119B013311932700EEE7013386
:1039000011930024119A11780B00203BD8B2102893
:1039100003D88300D048C3589F460B00303BDBB22E
:10392000092B2CD92A292FD000230A93119B1A780E
:103930002E2A39D000239A46119A1378683BD9B2BF
:10394000122976D88B00C549CB589F4601231C43CA
:1039500001321192D6E702231C4301321192D1E7C2
:1039600004231C4301321192CCE708231C4301328B
:103970001192C7E710231C4301321192C2E711A82C
:10398000FFF726FA0A90D1E71C9B1A1D1C921868B3
:10399000002804DB0A90119B01331193C6E7022330
:1039A0001C4343420A93F6E78022D20014435A1C78
:1039B00011925A781300303BDBB2092B04D92A2A22
:1039C00007D000239A46B7E711A8FFF701FA82460D
:1039D000B2E71C9B1A1D1C921868002804DB824663
:1039E000119B01331193A7E70020F8E780235B00C8
:1039F0002343511C119152786C2A01D01C0018E00D
:103A0000C0239B001C430131119112E0802323430A
:103A1000511C11915278682A01D01C0009E0C02382
:103A20001C430131119104E080235B001C430132EF
:103A30001192119B18780300253BDAB2532A00D962
:103A40002CE29300864AD3589F4680239B001C4358
:103A500001321192EDE780235B001C430132119289
:103A6000E7E7782809D0582838D06F2838D062285E
:103A700038D010239C430A2600E01026582833D063
:103A8000692803D0642801D00C229443630501D532
:103A90000122944369282AD0642828D0A30500D5A0
:103AA0009FE0E30500D5B8E0630600D4CAE01C9AA5
:103AB000111D1C911168FF220A4005940A9B049372
:103AC00053460393029600230193009243463A0023
:103AD00059462800FFF76EFA070027E01026CDE7C9
:103AE0000826CBE70226C9E720221443C8E7A3052E
:103AF00020D4E30550D4630666D51C9A111D1C9191
:103B00001168FF220A40D317D118594005940A9B27
:103B10000493534603930296D20F019200914346B9
:103B20003A0059462800FFF745FA0700119B013378
:103B30001193D3E61C9BDA1D07218A43110008313B
:103B40001C91116853689C46DB170C930D930C9ADB
:103B50000D9B100048400E90624653400F930E9804
:103B60000F990C9A0D9B801A99410E900F91089411
:103B70000A9B0793534606930496002305936346D6
:103B8000DA0F02920090019143463A00594628000C
:103B9000FFF76EFA0700C9E71C9A111D1C91126805
:103BA000D317D118594005940A9B049353460393A5
:103BB0000296D20F0192009143463A0059462800DE
:103BC000FFF7F8F90700B1E7230605D51C9A111D88
:103BD0001C910023D25E96E71C9A111D1C9112685D
:103BE00091E71C9BDA1D07218A43110008311C91C3
:103BF00008940A9B07935346069304960023059363
:103C00000293136854680093019443463A0059465E
:103C10002800FFF72DFA070088E71C9A111D1C9158
:103C200005940A9B04935346039302960023019341
:103C30001368009343463A0059462800FFF7BAF943
:103C4000070073E723060DD51C9A111D1C911268FD
:103C50001204120C31E7C04664990110A8990110B2
:103C6000F49901101C9A111D1C91126825E7462831
:103C70001AD01C9B0733072293431A0008321C9268
:103C800004940A9A0392524602925C681B6800935D
:103C9000019443463A0059462800FFF765FC0700A7
:103CA000119B0133119319E620231C43E1E7672898
:103CB00001D0472802D180231B011C43452801D095
:103CC000472801D120231C431C9B07330722934321
:103CD0001A0008321C9204940A9A039252460292E5
:103CE0005C681B680093019443463A0059462800DB
:103CF000FFF730FA0700119B01331193EEE5022321
:103D00001A002240924623421FD001241C9B1A1DF8
:103D10001C927A1C9146187843463A005946A847A7
:103D20005346002B16D1119B013311934F46D5E515
:103D3000561C434659462020B847230032005C1CDD
:103D40009D42F5D83D001700E0E701233A002F001F
:103D50000A9DF4E74A46A9460A9D06E0571C4346D9
:103D600059462020C84734003A00661CA542F5D8C1
:103D70004D469146D7E71C9B1A1D1C921B6899461D
:103D80005346002B00D1013B4E4601E001361300A3
:103D90003278002A02D05A1E002BF7D14B46F21A75
:103DA00010928023DB0026001E401C4203D05245A7
:103DB00001D95346109302231A0022400B9223424A
:103DC00005D03A0037004C46A946554620E03A0057
:103DD000109B5F46B3462E0006E0551C4346390053
:103DE0002020B04723002A005C1C0A999942F4D88D
:103DF00035005E46BB46109437004C46A9465546F2
:103E000006E01D000134561C43465946C84732009F
:103E10002078002804D0002FF4D06B1E002DF0D1A4
:103E200017004D460B9B002B03D1119B01331193BF
:103E300054E50A9F109B06E0561C43465946202035
:103E4000A847230032005C1C9F42F5D81700ECE71E
:103E500021231C431C9B1A1D1C921B680093059474
:103E600008230493534603931023029300230193E2
:103E700043463A0059462800FFF79CF80700119B7B
:103E8000013311932AE57C1C43463A00594625200C
:103E9000A847119B0133119327001FE57C1C434663
:103EA0003A005946A847119B01331193270015E5A5
:103EB0000A4B9A4610E5AA46474502D343465A1E86
:103EC00000E03A00434659460020D047380013B07E
:103ED000F0BCBB46B246A946A046F0BDC12D0010BD
:103EE0000CB410B584B00A0006AC08CC039400945E
:103EF00001000448FFF7E2FC04B010BC08BC02B0AB
:103F00001847C046B92D001000B583B000931300C8
:103F10000A0001000248FFF7D1FC03B000BDC04613
:103F2000B92D001000B585B00290039101210093D6
:103F300013004A4202A90248FFF7C0FC05B000BDC9
:103F4000C32D001001480421014B1847401B0020DD
:103F5000753F001010B5010018231B88142210882B
:103F6000984710BD10B5010018231B881622108831
:103F7000984710BDF0B5C64600B507000E000025F5
:103F80000123984600E00135B5420AD2AC003C1945
:103F90002068FFF7DFFF20600028F4D10023984657
:103FA000F1E7404680BCB846F0BD0000124A936F6E
:103FB0009B0815D29066D166002905D0FFE7FFE780
:103FC000FFE7516F106F704704B580210906C217D3
:103FD0005140002800D0C84314F06AFE002104BDFF
:103FE000F0B5146E556E576F166FFFF7E3FF14664A
:103FF000556657671667F0BD000000D0114A936FF1
:104000009B0813D210665166002905D0FFE7FFE731
:10401000FFE7516F106F704704B5002801D00020F2
:10402000C04314F045FE002104BDC046F0B5146E37
:10403000556E576F166FFFF7E5FF146655665767A5
:104040001667F0BD000000D094464A4A926F92086D
:10405000624601D228E0C046F0B5464E346E756E19
:10406000776F366F00F020F89446424A1466556622
:10407000576716676246F0BD94463E4A926F9208B3
:10408000624601D254E0C046F0B53A4E346E756EC9
:10409000776F366F00F04CF89446364A14665566D2
:1040A000576716676246F0BD002B24DB11D000294C
:1040B0003EDA00B5C943404200D1013100F038F882
:1040C000C943404200D10131DB43524200D10133A8
:1040D00000BD002AEBD1002801D1002905D0002025
:1040E000C90FC90701D1C043410800B514F0D0FD84
:1040F0000022002300BD00B500290ADBDB43524249
:1041000000D1013300F014F8C943404200D101311D
:1041100000BDC943404200D10131DB43524200D1CE
:10412000013300F005F8DB43524200D1013300BDFA
:10413000002923D1002B18D1002A0CD0BC460D4FEA
:1041400038667A6600210023FFE7FFE7FFE77A6F12
:10415000386F67467047002801D00748010000B556
:1041600014F096FD0022002300BD02000B00002089
:1041700000217047000000D0FFFFFFFF002B00D0A0
:10418000BFE0130C28D1002AE7D080B4114F396664
:104190007A66FFE7FFE730B4040C7B6F396F1B04CE
:1041A00023433B667A66FFE7FFE7FFE7C04684B23A
:1041B0007B6F3D6F1B0423433B667A66FFE7FFE797
:1041C000C04600232C042D0C7A6F386F001969410A
:1041D000B0BC7047000000D0F0B594460025140E26
:1041E00001D112020835140F01D112010435940FC8
:1041F00001D192000235D40F01D152000135D40B08
:104200000134254F7C66254C3C660E0C93B2FFE7CB
:10421000FFE7FFE73C6F6643360C7703BE46734308
:10422000DF0B5B04C01AB941130C7343DB18C91AC6
:10423000CE086643360CB64493B273431F0F1B017E
:10424000C01AB941130C73431F0B1B05C01AB941A7
:10425000860D8F023E436643360C092D24DB520A3D
:104260007243801A7703460A6643360C16235B1B9B
:10427000DE40DF40BF1964466643821B704604354A
:1042800006330100D940A840C01900D30131A24231
:1042900006D20023F0BD0000000000D0FFFFFFFFAA
:1042A000121B0130F3D3F1E709277F1BFE40644660
:1042B000A2B27243801A00D20139220C7243130C4D
:1042C0001204821A99410B0070460435133701001D
:1042D000F940A840801900D30131002B02D1A2423D
:1042E0000AD2F0BD013000D30131121BFAD2013BDA
:1042F000F8D1A24200D2F0BD013000D30131121B2F
:10430000F7E7F0B51C0C00D080E00CB400251C0AC7
:1043100004D11B02160E3343120208351C0B04D1C4
:104320001B01160F3343120104359C0B04D19B0073
:10433000960F334392000235DC0B02D192185B4199
:1043400001351C00971864410134464F7C66464C89
:104350003C660E0CFFE7FFE7FFE7C0463C6F664395
:10436000360C7703BE4697B27743C01B00D20139A3
:10437000C01B00D201399FB27743C91BC91B170C60
:1043800077437E04FF0B801BB941CE086643360C91
:104390000C2D33DBB644120B1F053A431B0B97B2AF
:1043A0007743C01B00D201399FB27743C91B170C5A
:1043B00077433E043F0C801BB941860D8F023E437C
:1043C000664329277F1BFE400C3D7746AF40BF194F
:1043D00030BCA2B2ABB272437343801A9941220C33
:1043E0007243130C1204801A994102000B0001372A
:1043F000001BA941F9D2781E0021F0BD0C277F1BBC
:10440000FE4077467F0BAF40FF19E0E700245D1CBC
:1044100007D0144F7D663966FFE7FFE7FFE7FFE748
:104420003C6F95B29EB265436643401BB141150C8B
:104430001E0C6543664336042F0C3E432D04401B7F
:10444000B141994204D202000B0020000021F0BDCE
:1044500001D19042F7D3801A994101349942F2D3A5
:10446000F6E70000000000D0FFFFFFFF484041409A
:10447000484018B4134B5B68019308BD18B4114B46
:104480001B68019308BD94460F4A926F920805D2AB
:10449000624618B40B4BDB68019308BD0A4AF0B5BD
:1044A000146E556E576F166F6246FFF7F2FF064A9D
:1044B0001466556657671667F0BD18B4014B9B68C4
:1044C000019308BD98810020000000D0FFB5504046
:1044D0004240504059404B40594000E0FFB5154F15
:1044E0004C00640D03D0BC4204D10C0314D800204E
:1044F000090D09055C00640D03D0BC4204D11C0306
:104500000AD800221B0D1B0501264B4009D44B4045
:1045100003D58B4200D18242FFBD9942FCD190422B
:10452000FFBD0B43DB1803431343F5D0C9434918C0
:10453000FFBD0000FF07000000B5FFF7CFFF80417F
:1045400000BDC04600B5FFF7C9FF01D9002000BD7E
:10455000012000BD00B5FFF7B9FF01D9002000BD63
:10456000012000BD00B5FFF7B1FF804100BD012073
:1045700040054A00121804D85A00121801D8002029
:10458000704701207047002070470000002100287C
:1045900005D17047C1174840401AFAD0C90713B572
:1045A000064B1B6898470CBC441CA2401005120B1C
:1045B0000349091B09051943114310BDB8820020A6
:1045C0001F04000010B54C00620D8023D218DB00E0
:1045D000D21A5B057E2A10DD9E3A13DACC17090346
:1045E000490819435242D140640001341532202A4F
:1045F00005DAD0400843604310BD002010BD0846D6
:10460000604310BDC80FC018013810BD18B4024B6C
:104610005B6A019308BD00009881002010B5014835
:10462000FEF7B2FB989B011070B513231C78012C88
:1046300014D0012C14DC022C02DC1F4A1F4B9A649C
:104640001F48FFF787FC1F4B186070BD99001E487C
:104650001A4A885001331F2BF8D9EAE70023FAE7FA
:104660001A48FFF77FFC05001948FFF77BFC02386A
:1046700003789B007F2B19DD802229000F4800F072
:10468000B1F9022CD7D1134B1A88B5231B029A42D9
:1046900009D1114B1A88114B9A4204D1104B1A8838
:1046A000104B9A42C7D00020FEF76EFB0E4B0F4A0C
:1046B00032210F48FEF7CEFAF5460010988100200F
:1046C0004C330000B88200201D4600105344000007
:1046D0005346000054380000D83800004946000016
:1046E0009C38000059460000B09B0110509C0110FE
:1046F000049C011007B56046002800D100BE018867
:104700000A0A0230DF2AFAD1C9B2820804D3028829
:1047100040880004104300E00068024A50500390B3
:1047200007BD00009881002051434343C9188C46BF
:10473000110C83B24B4310B4040C614392B280B2AB
:10474000504362431C041B0C001910BC5941130454
:10475000120CC0185141614470470000484041406C
:1047600048400E4B5B6818470C4B1B6818470C4AB7
:10477000936F9B0802D2094BDB681847F0B5146EA3
:10478000556E576F166FFFF7F6FF054A14665566AC
:1047900057671667F0BD014B9B681847BC82002025
:1047A000000000D007B548404140484001E0C04605
:1047B00007B54200120E03D0FF2A03D1420218D8D7
:1047C000C00DC0054A00120E03D0FF2A03D14A02D1
:1047D0000FD8C90DC9050122414005D4414001D57A
:1047E000814207BD884207BD0143491801D0C0433B
:1047F000001807BD00B5FFF7D5FF804100BD491A7D
:10480000002807D108467047C10FC90700D54042AC
:10481000002817D0F44603B40B4B1B68984706BC1E
:1048200081409E384042803107D20B0607D04900B4
:10483000490AC0051043084360470130F8E7490AB8
:104840008902F5E770470000B882002041000A0E97
:1048500080231B067E2A0BDD9E3A0BDAC11740022D
:10486000400818435242D040490001314843704744
:1048700000207047C00FC01801387047C0420DD3E8
:1048800000B540004008002100F00EF8002801D4D7
:10489000404200BD8020000600BD0000014BDB69E6
:1048A00018470000BC820020014B5B6A18470000DB
:1048B000BC820020014BDB6F18470000BC82002047
:1048C00010B50148FEF760FAC8B5011070B51323A2
:1048D0001E781848FFF746FB0500012E11D0012E67
:1048E00009DDAB1E1B789B007F2B1DDD802229007C
:1048F000114800F077F81148FFF72CFB104B1860B7
:1049000070BD542201000C4800F06CF8002300E058
:1049100001331F2BE3D89A00074C1259002AF7D114
:104920009A0008481051F3E7074B084A422108480B
:10493000FEF790F953460000BC8200204C33000083
:10494000B8820020C1480010649C0110E49C011052
:10495000989C011010B5040011F080FF002804D0CD
:104960000419034B9C4200D810BD0248FEF70CFA14
:1049700000000420F89C011010B50C0011F048FE56
:10498000002804D00419034B9C4200D810BD0248F3
:10499000FEF7FAF900000420F89C011010B50C0095
:1049A00012F0CCFA002804D00419034B9C4200D822
:1049B00010BD0248FEF7E8F900000420F89C011041
:1049C00010B511F055FF10BD01480421014B1847E7
:1049D000501B0020753F0010014B1B68184700005A
:1049E000501B0020014B5B6818470000501B002043
:1049F00010B50300080011001B68984710BD10B5E2
:104A00000300080011001B68984710BD70B5050031
:104A10000368002B16D00C4B1C6805E0290004C964
:104A20002000FFF7ECFF2469002C09D02368002B3D
:104A3000F9D0064B1B68002BF0D0A342F3D1EDE771
:104A400000232B6070BDC0467C7C0020847C00204D
:104A500070B505000C000B68802B05D021684B1C3D
:104A600023606418257170BD0800FFF7CFFFF5E7DC
:104A7000F0B583B007000E000092019328E0A36810
:104A8000002B04D0310038009847002827DC246927
:104A9000002C06D0134B1D68002DF0D0A542F6D196
:104AA000EDE70099019A104B5B6A9A4209D80E48CB
:104AB000806A88420FD29A4201D0012302E000238B
:104AC00000E00023002B08D101200021FDF75CFB52
:104AD000064B1C68DCE70123F4E70120404203B0E9
:104AE000F0BDC046847C0020004005407C7C002056
:104AF00010B5FDF729FB02000B1E0BDB0D48002152
:104B000012184B41002B0BDB002B0DDB0A4814F075
:104B1000F7F810BD094B0A4A3F210A48FEF79AF8F8
:104B200001225242084BEFE7044B054A3F2105485A
:104B3000FEF790F840420F00EC290020E08D0110B4
:104B4000D09D0110348E0110FFFFFF7F10B5024889
:104B500014F096F810BDC046EC290020F0B5CE4602
:104B6000474680B583B006000D0090461C00FFF755
:104B7000BFFF81466B1C05D0002C08D0194F1A4B83
:104B80001C6807E0300012F0B5FD0500F4E7174F90
:104B9000F5E72469002C17D02368002BF9D0144BBB
:104BA0001B68002B01D0A342F3D12A003100200062
:104BB000B8474346002BECD06B46D91D0A230B7037
:104BC00001222000B847E4E74B46002B07D16B1EBB
:104BD0009D41E8B203B0C0BCB946B046F0BDFFF796
:104BE000B5FFF4E7F14900107C7C0020FF4900107C
:104BF000847C002010B582B004006B46D81D047080
:104C0000002300220121FFF7A9FF200002B010BD00
:104C100010B5030008001100002B05D1044B1A68E1
:104C20005B68FFF725FF10BD01204042FBE7C0464F
:104C30002895011010B5030008001400013B012B5A
:104C400006D8002300222100FFF788FF200010BDB6
:104C500001204042FBE701204042704701204042D2
:104C600070470120404270470300002002229A4210
:104C700040417047094A01E010331A001368002BC5
:104C800008D08342F8D1002907D1036913600023BB
:104C9000036102E0002900D0106070477C7C002096
:104CA00010B5064B1C6801E098472469002C03D01E
:104CB0006368002BF8D1F8E710BDC0467C7C00206B
:104CC00070B5050012F016FD04000023012201005A
:104CD0002800FFF743FFFFF7E3FF200070BD00004F
:104CE00070B5A2B004000E00FFF702FF050000231C
:104CF00001933300220001A90848FFF713F90400CB
:104D000001A8FFF783FEFFF7CBFF002D02D12000A3
:104D100022B070BDFFF71AFFF9E7C046514A0010F4
:104D20000FB400B583B004A901C90191FFF7D8FF02
:104D300003B008BC04B0184710B500F077F910BDF7
:104D400030B583B004000025FDF7FEF902000B1E0C
:104D500010DB12196B41002B12DB002B14DB01213D
:104D600001A8FFF785FE002802DB13D001AB1878FD
:104D700003B030BD0B4B0C4A3F210C48FDF76AFFD6
:104D8000012252420A4BE8E7064B074A3F210748F7
:104D9000FDF760FF9E21074B074A49000748FDF7D2
:104DA00059FFC046E08D0110D09D0110348E0110D6
:104DB000FFFFFF7F44940110BC9D01107C9D0110FA
:104DC00070470000014B00221A707047E2840020F7
:104DD0004B79FF2B0CD18B79002B0BD1CB79012B8D
:104DE0000AD1082A0AD98A78054B1A70092000E0EE
:104DF000002070470020FCE70020FAE70020F8E7D9
:104E0000E28400200120704770B504000D000348C3
:104E1000FFF7A0F803002900200098475542000042
:104E200010B5012926D1117953791B020B43124980
:104E300009788B4201D000201DE05378012B03D06C
:104E4000022B10D0002016E09178D3781B02194372
:104E5000DB0506D54B0A012098407F231940FFF758
:104E6000D3FF0020F9E7642200210020FDF794FE23
:104E7000012000E0012010BDE28400200123037026
:104E800000487047E89D011010B50B784878000283
:104E900018438A7812041043CB781B0603439622EA
:104EA000D200934200D010BD00210800FFF7ACFFF4
:104EB000024B1860024B19607047C0460078002012
:104EC0000478002010B5024B1878FCF7DDF810BD0F
:104ED000E384002070B5134B1B68002B1DD0114BD1
:104EE0001968EFF3108372B60A68002AFCD0BFF38A
:104EF0005F8F0C494B6000220B4802700968BFF3BA
:104F00005F8F0A6083F3108800240025074B187810
:104F1000FCF7BAF82000290070BDFA24A40000258F
:104F2000F4E7C04630810020E4840020E3840020C0
:104F300010B584B000212D4813F0C2FE00283AD1EC
:104F40002B4B1B68002B3ED0294B1968EFF31082C6
:104F500072B60B68002BFCD0BFF35F8F24494A6008
:104F60002448037801246340DBB2012404700968FB
:104F7000BFF35F8F0020086082F31088002B22D0DF
:104F8000FCF7F0FE0400FDF7DFF802000B1E1CDB4F
:104F9000FA208000002112184B41002B1BDB002B54
:104FA0001DDB012102910021019113490091200094
:104FB000FCF7EEFE07E001200021404201F0F0F88E
:104FC0000A4813F05DFE04B010BD0C4B0C4A3F21A3
:104FD0000C48FDF73FFE012252420B4BDFE7074B27
:104FE000074A3F210748FDF735FEC046D083002021
:104FF00030810020E4840020D54E0010E08D0110A7
:10500000789E0110348E0110FFFFFF7F10B5054B15
:105010001868002804D0044B1968002200F0E6FD4F
:1050200010BDC046007800200478002010B584B080
:10503000D0231B061C68FCF795FEFCF7D9FFA042A5
:105040002AD1324B1B7801F093FD3148FCF7FAFA74
:105050000120FCF7DBFAC0B22E4C20702E49FCF781
:1050600035F820780121FCF707F80520FCF71CF83B
:10507000041E17D0002229490520FCF751F8FBF740
:1050800069FF01002648FCF7F9FA01212548FFF7DE
:10509000F1FD200004B010BD234B244AB221244866
:1050A000FDF7D8FDFCF75EFE0400FDF74DF80200A9
:1050B0000B1E1BDBFA208000002112184B41002B35
:1050C0001ADB002B1CDB01210291002101911949FF
:1050D00000912000FCF75CFEC443E40F082200218D
:1050E0000F48FFF779FC002CD3D0CEE7124B134AC0
:1050F0003F211348FDF7AEFD01225242114BE0E77C
:105100000D4B0E4A3F210E48FDF7A4FDD4B8011007
:10511000D0830020E3840020314F0010C54E0010E2
:1051200030810020601B002068900110689E0110F3
:10513000009E0110D54E0010E08D0110789E0110E8
:10514000348E0110FFFFFF7F10B5002001F030FA10
:1051500010BD000070B505000C00FFF7F5FF00283A
:1051600045D0002001F046FA002843D0FCF7ECFFC0
:1051700002000B1E21DB2248002112184B41002B9C
:1051800021DB002B23DB1F4813F0BAFD002834D0AD
:10519000FFF7DAFF002804D0002001F02BFA0028E6
:1051A0001BD101200021404200F0FAFF0324644299
:1051B000144813F065FD200070BD134B134A3F21C6
:1051C0001348FDF747FD01225242124BD9E70E4B1F
:1051D0000E4A3F210E48FDF73DFD22002900002028
:1051E00001F014FA041EE3D103246442E0E703242F
:1051F0006442E0E703246442DDE703246442DAE723
:1052000040420F00D0830020E08D0110789E0110F5
:10521000348E0110FFFFFF7FF0B5C64600B5804613
:105220000C00FCF791FF02000B1E0FDB374800213A
:1052300012184B41002B0FDB002B11DB344813F00D
:105240005FFD002812D180BCB846F0BD314B324A18
:105250003F213248FDF7FEFC01225242304BEBE782
:105260002C4B2D4A3F212D48FDF7F4FCFFF76CFF36
:10527000002849D12B4B0020002118605960244898
:1052800013F0FEFCDFE701200021404200F088FF20
:10529000002001F0CFF9FFF757FF0028EFD00020E2
:1052A00001F040FA002820D0A542E8DA661B002071
:1052B00001F038FA0200864200DC3200002AE2D017
:1052C00043465919002001F011FA0600012000217F
:1052D000404200F065FF002001F0ACF9AD19FCF789
:1052E00033FF104B18605960DEE7FCF72DFF0D4BC4
:1052F0001E685F680C4A002392197B419942BED810
:10530000D2D19042D0D9BAE70025CDE740420F0074
:10531000D0830020E08D0110789E0110348E0110A2
:10532000FFFFFF7F2872002020A107000048704780
:10533000109F011000487047BC9E011010B504007A
:10534000154B1B78002B0ED0002C11D1134B144A97
:105350005A80012301335B001BB2C0229200134329
:105360000E48038010BD11210B4800F025F8EBE733
:10537000052C0ED8A4000B4BE4580023122BE9D8BF
:10538000E25C002AE6D00133590004484252DBB205
:10539000F4E70020E6E7C04670840020547C00203B
:1053A00009040000249F011010B5024800F034F8F1
:1053B00010BDC0466881002010B5002901D000232F
:1053C0000AE0114B114A1F311148FDF743FC00243C
:1053D0000DE03732C25401334A1E9A420FD90F2BC7
:1053E0000DD85A080B4CA25CDC07F0D404242241EF
:1053F00014000F222240092AEBDC3032EAE7C01801
:105400000023037010BDC0463C9F01108C9F01100B
:10541000449F01106881002070B588B0040004AD7D
:10542000002604960922002105A8FFF7D5FA009668
:105430000922002101A8FFF7CFFA4B232B700D2280
:105440006946280013F014FC002304E05A1D694645
:105450008A5CE2540133072BF8DD08B070BD000010
:1054600002007F201040D209400080184001014B0B
:10547000C0187047DC7C002010B5038B3F333F22FF
:105480009343022915D0124C2268C260D3182360BE
:105490009C0610D10F4C6240634080246401A342FB
:1054A0000FD88906114380231B06194343681960EE
:1054B00010BD5B00E7E7084B084A54210848FDF798
:1054C000C9FB084B054A56210548FDF7C3FBC046FA
:1054D000188100200000105018A1011034A2011002
:1054E00048A10110A0A10110F8B505000E0014009C
:1054F000FFF7B6FF7F232B40EF0985707A427A4190
:1055000042700022C2700683C476012F0DD0DA00EB
:1055100012498C4662448260826800211160002B2F
:1055200009D143600E4BC360F8BDDA000D498C46CB
:1055300062448260F0E7012F09D0013BDB000A4A98
:105540009446634443602100FFF796FFECE7013B7C
:10555000DB00064A944663444360F4E7840010503D
:1055600000011050800010500C0010500800105026
:1055700070B50C001500FFF773FF2A00210000F042
:105580000DF970BD10B5002804D101210520FBF7ED
:1055900073FD10BDD521034B034A49000348FDF7B5
:1055A00059FBC046E8A1011024A2011048A1011036
:1055B00010B5002805D1002200218020FFF7D8FF78
:1055C00010BDDB21024B034A49000348FDF742FBB3
:1055D000E8A1011014A2011048A10110024B802281
:1055E0005202DA647047C0460020115070B5041EA4
:1055F00026D100F0ADF8164D0C23AB67FF221549FC
:105600000520FBF78DFD402200211348FFF7E4F948
:10561000002240210020FFF767FF00224021802068
:10562000FFF762FF13F054FB01232B6480239B05DB
:10563000EB649023094AEA502000FFF7CFFF70BDCA
:105640008621074B074AFF310748FDF703FBC04699
:1056500000001150A1040020DC7C002010D00100CB
:10566000E8A1011048A2011048A101100B785B06C7
:1056700002D14B78052B00D070478A78014B1A6015
:10568000FAE7C0460000115010B50C0000280DD1FB
:10569000097963791B020B435B05590DE278920788
:1056A000920FA078FFF720FF012010BDFC21034BD3
:1056B000034AFF310348FDF7CDFAC046E8A10110C7
:1056C00004A2011048A1011010B513F001FB10BD98
:1056D00010B50400080011001A00002C03D1FFF7D8
:1056E00047FF012010BD034B034A04490448FDF75E
:1056F000B1FAC046E8A10110F4A101100A020000AD
:1057000048A1011010B508004B0605D1CB09012BAB
:105710000AD00222054B9A66FFF7A2FE80221201F0
:10572000002113F005FB10BD0122F3E7002011500A
:1057300010B508004B0600D110BDFFF791FE002305
:10574000C3700022014913F0F3FAF5E7FFF7FFFFFA
:1057500010B580235B040C4A13600C4A13600C4B99
:105760009A6880235B049343F9D10A4C9C22002160
:105770002000FFF731F98022520100210648FFF78F
:105780002BF90923636710BD00E0004000F00040E2
:1057900000C00040000011500000105070B504001F
:1057A0000D001600837E002B17D1A6820023E38212
:1057B0000133A3762561200013F052FA002804D0AB
:1057C000094A902380218902D150200013F068FA01
:1057D000002805D00123237770BD13F0A1FAE4E778
:1057E000200013F095FAF7E70020115070B505007E
:1057F00000240CE063001B19DA00184B1B689B188F
:10580000002B2AD05B68280098470134E4B2144B7F
:105810001B78A34210D3134A002A0BD0A342E9D825
:10582000E31ADBB2002B18D15A00D218D2000E4B6B
:105830009B18E5E72300F5E70C4C532200212000DC
:10584000FFF7CAF8E01C1022FF21FFF7C5F820007F
:1058500013302022FF21FFF7BFF870BDA072002097
:10586000DA8400207D4E0010DCA30110C8750020F2
:1058700010B5FFF7BBFF00F0F1FD10BD70B50500DE
:105880000C001600C86800F0F3FDE3683200012147
:105890002800984770BD0000F0B5DE4657464E46DA
:1058A000C0B582B000900139C8B2FFF743FD0028AF
:1058B00000D18CE043789A46022B00D089E0C5796C
:1058C0006A11013B4B491A4014010A781027BA4368
:1058D00022430A70AD112B405B01D2B22024A243B7
:1058E00013430B70060009368278C47824021443EF
:1058F0000419A64264D273780B2B09D001239B466E
:105900007378042B6CD1A31B9BB29946002525E02C
:10591000F3789B463378F618F2E76F007F19FB00A7
:10592000354A1768FF182BE02B0022E0BA68334B8A
:105930009A4234D1D34632E02E482B00019F3A00E0
:105940003100133001F0A2F9BC4666442C4B1B78A1
:10595000AB42CED200203DE00135EDB2284B1B78A2
:10596000AB42F3D3274A002ADED0AB42D5D8EB1A9C
:10597000DBB2002B36D15F00FB18DB00224FFF1893
:10598000002F31D04A4631000098BB6898470190FB
:105990000828E1D98145DFD35B46012BC6D0002220
:1059A0009345C9D9B3789B18DBB21249C918C97895
:1059B000FF291BD10F49CB18DD700132D2B2EFE7BE
:1059C000124B002B14D000E000BF012002E00020A9
:1059D00000E0002002B0E0BCBB46B246A946F0BDE4
:1059E0000020F7E70020F5E70020F3E70020F1E7CB
:1059F0000120EFE7C8750020A07200204168001068
:105A0000DA8400207D4E0010DCA3011000000000AD
:105A100070B505000C00CB7888780F2B50D89A0011
:105A20002E498A589746FFF781FC02001223210075
:105A3000280000F0D9FC44E0294B002B42D000E0C4
:105A400000BF021E40D08178C3781B020B432100A7
:105A5000280000F0C9FC34E0022B09D0214B002BB8
:105A600034D000E000BF0200002A05D1002028E069
:105A7000FFF760FC0200F7E79178D3781B020B4335
:105A80002100280000F0B0FC1BE0237961790902B5
:105A90001943FFF753FC021E1AD003782100280097
:105AA00000F0A2FC0DE0104B002B13D000E000BF73
:105AB000021E11D003782100280000F095FC00E0C0
:105AC000002070BD0020FCE70020FAE70020F8E786
:105AD0000020F6E70020F4E70020F2E750A30110D1
